:060158008B368A3789385E
:10015E00E4F539ED14F53AF539C3E53994087480B0
:10016E009480507BE539B40800504D900180F828FA
:10017E00287302019802019C0201A00201A402014F
:10018E00A80201B00201B80201C0D2A4800ED2A40E
:10019E008012D2A48016D2A4801AC2A4D2A3D2A254
:1001AE008016C2A4D2A3C2A2800EC2A4C2A3D2A29F
:1001BE008006C2A4C2A3C2A2C3E539953AFFE49455
:1001CE0000AB36AA37A9388F82F5831202A8F580C4
:0F01DE007F647E00120310E4F58005390201678B
:0101ED0022EF
:1002D50020220C003F0006005B004F0066006D0009
:1002E5007D0007007F006F0077007C0039005E000D
:0502F50079007100001A
:09032000D288D2A8D2AFD2B222D9
:03000300020006F2
:10000600C0E0C0F0C083C082C0D075D000C000C0C0
:0D00160001C002C003C004C005C006C00741
:10002300752E00752F007530007531007532003064
:10003300B20302013D752F037530E820B21EE5308F
:10004300452F60187F017E00120310E530153070D4
:1000530002152FE530452F70E202013D20B2030265
:10006300011D752F017530F430B21EE530452F6048
:10007300187F017E00120310E53015307002152F32
:10008300E530452F70E202013D753100C3E531943F
:100093000474809480400302011D753200C3E5326D
:1000A300940874809480506D752F0275305820B277
:1000B3001DE530452F60177F017E00120310E530E8
:1000C30015307002152FE530452F70E2806C752FC7
:1000D3000075301430B2167F0A7E00120310052E0D
:1000E300D3E52E94147480948040E9804D740825E0
:1000F30031F8C000E6C313D000F6C3E52E940874AC
:10010300809480400974082531F8E64480F6752E02
:100113000005328088053102008FE50BF4650A6023
:1001230019753100C3E531940474809480500B74C5
:0A013300082531F87600053180EA56
:10013D00D007D006D005D004D003D002D001D00016
:0B014D00D0D0D082D083D0F0D0E032C0
:10027A00120320E50AC4540F25E0240CF808E6F519
:10028A0033E50A540F25E0240CF808E6F5347535F1
:0E029A00767B007A0079337D0612015880D5FC
:1002FB00EF4E6010007D027CC7DCFEDDFCEF1F7053
:04030B00EF1E80EC75
:01030F0022CB
:0F031000EF4E600B7D02DDFEEF1F70F41E80F1DB
:01031F0022BB
:020329000022B0
:030000000201EE0C
:0C01EE00787FE4F6D8FD75813A020235F6
:1002A800BB010CE58229F582E5833AF583E022500B
:1002B80006E92582F8E622BBFE06E92582F8E22255
:0D02C800E58229F582E5833AF583E493226F
:1001FA0002027AE493A3F8E493A34003F68001F29F
:10020A0008DFF48029E493A3F85407240CC8C33305
:10021A00C4540F4420C8834004F456800146F6DFD4
:10022A00E4800B01020408102040809002D5E47E8D
:10023A00019360BCA3FF543F30E509541FFEE493C9
:10024A00A360010ECF54C025E060A840B8E493A390
:10025A00FAE493A3F8E493A3C8C582C8CAC583CABB
:10026A00F0A3C8C582C8CAC583CADFE9DEE780BE73
:0102FA000003
:00000001FF
