:060157008B368A3789385F
:10015D00E4F539ED14F53AF539C3E53994087480B1
:10016D009480507BE539B40800504D90017FF828FC
:10017D00287302019702019B02019F0201A3020154
:10018D00A70201AF0201B70201BFD2A4800ED2A413
:10019D008012D2A48016D2A4801AC2A4D2A3D2A255
:1001AD008016C2A4D2A3C2A2800EC2A4C2A3D2A2A0
:1001BD008006C2A4C2A3C2A2C3E539953AFFE49456
:1001CD0000AB36AA37A9388F82F5831202A9F580C4
:0F01DD007F647E00120311E4F58005390201668C
:0101EC0022F0
:1002D60020220C003F0006005B004F0066006D0008
:1002E6007D0007007F006F0077007C0039005E000C
:0502F600790071000019
:09032100D288D2A8D2AFD2B222D8
:03000300020006F2
:10000600C0E0C0F0C083C082C0D075D000C000C0C0
:0D00160001C002C003C004C005C006C00741
:10002300752E00752F007530007531007532003064
:10003300B20302013C752F037530E820B21EE53090
:10004300452F60187F017E00120311E530153070D3
:1000530002152FE530452F70E202013C20B2030266
:100063000114752F017530F430B21EE530452F6051
:10007300187F017E00120311E53015307002152F31
:10008300E530452F70E202013C753100C3E5319440
:100093000474809480507A753200C3E532940874F6
:1000A3008094805067752F0275305820B21DE5305B
:1000B300452F60177F017E00120311E53015307064
:1000C30002152FE530452F70E2806E30B2167F0A9D
:1000D3007E00120311052ED3E52E941474809480B0
:1000E30040E9805574082531F8C000E6C313D000F9
:1000F300F6C3E52E94087480948040097408253172
:10010300F8E64480F6752E000532808E0531020034
:100113008FE50BF4650A6019753100C3E53194046A
:1001230074809480501374082531F876000531806B
:09013300EAE50A64457002B2908D
:10013C00D007D006D005D004D003D002D001D00017
:0B014C00D0D0D082D083D0F0D0E032C1
:10027900120321C290E50AC4540F25E0240CF808A2
:10028900E6F533E50A540F25E0240CF808E6F534C1
:100299007535767B007A0079337D0612015780D552
:1002FC00EF4E6010007D027CC7DCFEDDFCEF1F7052
:04030C00EF1E80EC74
:0103100022CA
:0F031100EF4E600B7D02DDFEEF1F70F41E80F1DA
:0103200022BA
:02032A000022AF
:030000000201ED0D
:0C01ED00787FE4F6D8FD75813A020234F8
:1002A900BB010CE58229F582E5833AF583E022500A
:1002B90006E92582F8E622BBFE06E92582F8E22254
:0D02C900E58229F582E5833AF583E493226E
:1001F900020279E493A3F8E493A34003F68001F2A1
:1002090008DFF48029E493A3F85407240CC8C33306
:10021900C4540F4420C8834004F456800146F6DFD5
:10022900E4800B01020408102040809002D6E47E8D
:10023900019360BCA3FF543F30E509541FFEE493CA
:10024900A360010ECF54C025E060A840B8E493A391
:10025900FAE493A3F8E493A3C8C582C8CAC583CABC
:10026900F0A3C8C582C8CAC583CADFE9DEE780BE74
:0102FB000002
:00000001FF
