:10019C0011083F065B4F666D7D077F6F777C395E7C
:0301AC0079710066
:0801B0007F247ED9DEFEDFFC96
:0101B8002224
:100003007590F7AF90EF64F760371201B020940A50
:10001300AF90EF64F770F985148020950AAF90EFE5
:1000230064F770F985108020960AAF90EF64F7703B
:10003300F9850C8020970AAF90EF64F770F9850873
:10004300807590FBAF90EF64FB60371201B0209492
:100053000AAF90EF64FB70F985158020950AAF9085
:10006300EF64FB70F985118020960AAF90EF64FB73
:1000730070F9850D8020970AAF90EF64FB70F985C6
:1000830009807590FDAF90EF64FD60371201B020D9
:10009300940AAF90EF64FD70F985168020950AAF3E
:1000A30090EF64FD70F985128020960AAF90EF649B
:1000B300FD70F9850E8020970AAF90EF64FD70F90B
:1000C300850A807590FEAF90EF64FE700302000313
:1000D3001201B020940AAF90EF64FE70F985178087
:1000E30020950AAF90EF64FE70F985138020960A7D
:1000F300AF90EF64FE70F9850F8030970302000321
:0D010300AF90EF64FE70F9850B80020003E1
:03000000020110EA
:0C011000787FE4F6D8FD758118020157D5
:10011C00020003E493A3F8E493A34003F68001F2F6
:10012C0008DFF48029E493A3F85407240CC8C333E4
:10013C00C4540F4420C8834004F456800146F6DFB3
:10014C00E4800B010204081020408090019CE47EA6
:10015C00019360BCA3FF543F30E509541FFEE493A8
:10016C00A360010ECF54C025E060A840B8E493A36F
:10017C00FAE493A3F8E493A3C8C582C8CAC583CA9A
:10018C00F0A3C8C582C8CAC583CADFE9DEE780BE52
:0101AF00004F
:00000001FF
