:1006CB00202208003F0006005B004F0066006D0013
:1006DB007D0007007F006F0077007C0039005E0013
:0506EB00790071000020
:10028E00E4F52A1207E3052AE52A75F03284E5F033
:10029E007014120474E4FBFA7920784112000312F0
:1002AE0001478E2B8F2CC3E52B648094805010C396
:1002BE00E4952CF52CE4952BF52B752D408003E45D
:1002CE00F52DAE2BAF2C7C037DE81201F5EF25E06A
:1002DE002408F808E6F52EAE2BAF2C7C037DE81231
:1002EE0001F5AA04AB057D647C00AF03AE021201DA
:1002FE00F5EF25E02408F808E6F52F7D647C00AFC5
:10030E0003AE021201F5AA04AB057D0A7C00AF0311
:10031E00AE021201F5EF25E02408F808E64480F558
:10032E00307D0A7C00AF03AE021201F5ED25E0240C
:10033E0008F808E6F5317B007A00792D7D0412036A
:04034E0052020294C1
:1006F4008F3D8D3E1207437FA01205C612071DAF22
:100704003D1205C612071DAF3E1205C612071D1283
:09071400079D7F0A7E00020788A0
:02069B008F3F8F
:10069D00E4F5401207437FA01205C612071DAF3FB8
:1006AD001205C612071D1207437FA11205C61207B8
:0D06BD001DE4FF1206578F4012079DAF404D
:0106CA00220D
:0607E3001207B10204D66A
:1007B100C2B77F4B7E001207D3D2B77F027E000201
:0207C10007D35C
:1004D600E4F53730B716C3E537941474809480502A
:1004E6000B05377F017E001207D380E7C3E53794FB
:1004F600147480948040037F0122E4F53720B716F8
:10050600C3E537941474809480500B05377F017EC1
:10051600001207D380E7C3E53794147480948040B3
:06052600037F01227F00AB
:01052C0022AC
:10047400E4FFF536FDFC1207C31207B11204D67F60
:10048400CC1206107FBE12061012052D8F361205EF
:100494002DEFFE7C00E42536FDEC3EFC54F8FEEE28
:1004A400B4F826EDF4FFECF4FEEF2401FDE43EFC89
:1004B400FEAF05E412010EE4FBFA7980783D1200E8
:1004C400038F358E348D338C32AF35AE34AD33ACCF
:0104D40032F5
:0104D5002204
:1007C3001207B11204D67FCC1206107F4402061022
:020610008F3722
:10061200E4F538F538C3E538940874809480503492
:10062200E53754809400748094804010C2B712075A
:10063200E9D2B77F067E001207D3800EC2B77F06CB
:100642007E001207D3D2B71207E9E53725E0F53766
:04065200053880C126
:010656002281
:10052D00E4F537F538F539F538C3E53894087480B6
:10053D0094805036C2B71207E9D2B77F017E001200
:10054D0007D31207E9A2B7E433F53920B708E53729
:10055D00C313F5378009E537C313F5374337807F6C
:0C056D00057E001207D3053880BFAF37B1
:01057900225F
:10074300D2A1D2A07F017E001207D3C2A07F017E77
:07075300001207D3C2A1222E
:10079D00D2A1C2A07F017E001207D3D2A07F017E1D
:0407AD00000207D36C
:10075A00C2A1C2A07F017E001207D3D2A17F017E6F
:07076A00001207D3C2A12217
:10077100C2A1D2A07F017E001207D3D2A17F017E48
:07078100001207D3C2A12200
:10071D00E4F543D2A17F01FE1207D330A0130543A8
:10072D00D3E54394647480948040F012079D7F015B
:05073D0022C2A17F00B3
:010742002294
:0205C6008F4163
:1005C800E4F542C2A1F542C3E542940874809480E0
:1005D8005035E54154809400748094804004D2A042
:1005E8008002C2A0E54125E0F5417F017E001207A7
:1005F800D3D2A17F017E001207D3C2A17F017E0062
:070608001207D3054280C078
:01060F0022C8
:020657008F3AD8
:10065900E4F53BF53CF53BC3E53B94087480948095
:100669005021C2A17F017E001207D3D2A1E53C250A
:10067900E0F53C30A002053C7F017E001207D3055E
:100689003B80D4E53A7005120771800312075AAF0F
:010699003C24
:01069A00223D
:0306F000014401C1
:10057A00EF6003754401E5446401702E30B109301F
:10058A00B00630B20320B3227FE87E031207D3E419
:10059A00F54420B1037F012220B0037F022220B25A
:1005AA00037F032220B3127F042230B10C30B0093A
:0B05BA0030B20630B3037544017F002F
:0105C5002213
:060352008B328A3389346E
:10035800E4F535ED14F536F535C3E53594087480C4
:100368009480507BE535B40800504D90037AF82806
:10037800287302039202039602039A02039E020361
:10038800A20203AA0203B20203BAD2A4800ED2A424
:100398008012D2A48016D2A4801AC2A4D2A3D2A258
:1003A8008016C2A4D2A3C2A2800EC2A4C2A3D2A2A3
:1003B8008006C2A4C2A3C2A2C3E5359536FFE49461
:1003C80000AB32AA33A9348F82F5831201C8F580B5
:0F03D8007F647E001207D3E4F5800535020361D0
:0103E70022F3
:10078800EF4E6010007D027CC7DCFEDDFCEF1F70C1
:04079800EF1E80ECE4
:01079C00223A
:0F07D300EF4E600B7D02DDFEEF1F70F41E80F114
:0107E20022F4
:0207E9000022EC
:10000300EC4D6011E8497017ED33EC3304600DE4F7
:10001300FCFFFEFD22E933E8330470F80201B3125A
:10002300017E58046009E4CC24815006285009025B
:1000330001BD2840030201BAC0E0EB4A7044B98015
:1000430006D0E0FB0201A9EF4E701CBD8008EBFF58
:10005300EAFEE9FD80EBE98DF0A4FEE5F00200EC99
:10006300E9CDF9EAFEEBFFEF89F0A4FCE5F0CE89D8
:10007300F0A42EFFE435F0CD89F0A42DFEE435F095
:100083008067EF4E7005BD80D780C3EF8BF0A4ACC3
:10009300F0EE8BF0A42CFCE435F0F8EF8AF0A42CFE
:1000A300E5F038FCE433CB8DF0A42CFCE5F03BF811
:1000B300EE8AF0A42CFCE5F038F8E433CF89F0A401
:1000C3002CFCE5F038CF3400CE89F0A42FFFE5F007
:1000D3003EFEE433C98DF0A42EFEE5F039CD8AF05F
:1000E300A42FFFE5F03EFEE43DFD33D0E0FB5007D7
:1000F3000BBB000F0201BDEC2CFCEF33FFEE33FE14
:06010300ED33FD02019541
:1001090075F020800E75F010800575F0087D007E71
:10011900007F003392D530D50312022BEC33401007
:10012900EF33FFEE33FEED33FDEC33FCD5F0ED227A
:0E013900E5F0247EA2D513CC92E7CDCEFF22B6
:10014700EDD2E7CD33EC3392D524814006E4FFFEB0
:10015700FDFC22FCE4CFCECDCC24E0501174FF800F
:10016700EDC3CC13CCCD13CDCE13CECF13CF0470AC
:07017700F030D5DE02022B7F
:10017E00E9D2E7C933E833F892D5EDD2E7CD33ECC7
:07018E0033FC5002B2D52240
:10019500EC30E7100FBF000C0EBE00080DBD0004CB
:1001A5000BEB6014A2D5EB13FCED92E7FD2274FF77
:1001B500FCFDFEFF22E480F8A2D574FF13FC7D80D0
:0301C500E480EFE4
:030000000203E810
:0C03E800787FE4F6D8FD75814402042FF4
:1001C800BB010CE58229F582E5833AF583E02250EC
:1001D80006E92582F8E622BBFE06E92582F8E22236
:0D01E800E58229F582E5833AF583E4932250
:1001F500C2D5EC30E709B2D5E4C39DFDE49CFCEE25
:1002050030E715B2D5E4C39FFFE49EFE120239C361
:10021500E49DFDE49CFC800312023930D507C3E45C
:060225009FFFE49EFE2293
:0E022B00C3E49FFFE49EFEE49DFDE49CFC22E4
:1003F40002028EE493A3F8E493A34003F68001F28F
:1004040008DFF48029E493A3F85407240CC8C33309
:10041400C4540F4420C8834004F456800146F6DFD8
:10042400E4800B01020408102040809006CBE47E97
:10043400019360BCA3FF543F30E509541FFEE493CD
:10044400A360010ECF54C025E060A840B8E493A394
:10045400FAE493A3F8E493A3C8C582C8CAC583CABF
:10046400F0A3C8C582C8CAC583CADFE9DEE780BE77
:0106F3000006
:10023900BC000BBE0029EF8DF084FFADF022E4CCA9
:10024900F875F008EF2FFFEE33FEEC33FCEE9DEC72
:10025900984005FCEE9DFE0FD5F0E9E4CEFD22EDB8
:10026900F8F5F0EE8420D21CFEADF075F008EF2F02
:10027900FFED33FD4007985006D5F0F222C398FDF3
:050289000FD5F0EA2290
:00000001FF
