:1006A600202208003F0006005B004F0066006D0038
:1006B6007D0007007F006F0077007C0039005E0038
:0506C600790071000045
:10028E00E4F52A1207DE052AE52A75F03284E5F038
:10029E007014120474E4FBFA7920784112000312F0
:1002AE0001478E2B8F2CC3E52B648094805010C396
:1002BE00E4952CF52CE4952BF52B752D408003E45D
:1002CE00F52DAE2BAF2C7C037DE81201F5EF25E06A
:1002DE002408F808E6F52EAE2BAF2C7C037DE81231
:1002EE0001F5AA04AB057D647C00AF03AE021201DA
:1002FE00F5EF25E02408F808E6F52F7D647C00AFC5
:10030E0003AE021201F5AA04AB057D0A7C00AF0311
:10031E00AE021201F5EF25E02408F808E64480F558
:10032E00307D0A7C00AF03AE021201F5ED25E0240C
:10033E0008F808E6F5317B007A00792D7D0412036A
:04034E0052020294C1
:1006CF008F3C8D3D12071E7FA01205751206F8AFE5
:1006DF003C1205751206F8AF3D1205751206F81299
:0906EF00078C7F0A7E00020763FC
:020676008F3EB5
:10067800E4F53F12071E7FA01205751206F8AF3E7B
:100688001205751206F812071E7FA11205751206CB
:0D069800F8E4FF1205BF8F3F12078CAF3F43
:0106A5002232
:0607DE001207CC0204DD4D
:0107F10022E5
:0507E400007F14DFFEA0
:0107E90022ED
:0907C200007F027E3DDEFEDFFC3B
:0107CB00220B
:0407EA007F02DFFEAD
:0107EE0022E8
:0A07CC00C2B71207C2D2B70207E459
:1004DD00E4FE30B710EEC394147480948050060E71
:1004ED001207EA80EDEEC394147480948040037F6C
:1004FD000122E4FE20B710EEC39414748094805052
:10050D00060E1207EA80EDAF06C3EF9414748094C3
:0B051D008040037F01221207C27F0014
:0105280022B0
:10047400E4FFF536F537F5381207D61207C212062F
:10048400037FBE12060B1206418F36120641EFFEA1
:100494007C00E42536F538EC3EF53754F8FEEEB42E
:1004A400F814E538F4FFE537F4FEEF2401F538E4F9
:1004B4003EF537FC8002AC37AD38E412010EE4FBA4
:1004C400FA7980783D1200038F358E348D338C3267
:0804D400AF35AE34AD33AC329C
:0104DC0022FD
:0807D6001206037F4402060B2A
:1007A000AE07C2B71207EAEE24FF92B71207E4D2EF
:0207B000B7226E
:10077800C2B71207F1D2B71207F1A2B7E433FE12DB
:0307880007E4FF84
:01078B00224B
:080603001207CC1204DD7FCCCC
:10060B00E4FEEEC39408748094805029EF54019457
:10061B000074809480400DC2B700D2B77D1B1DEDD6
:10062B00600B80FAC2B77D1BDDFED2B700EFC313A0
:05063B00FF000E80CD60
:010640002297
:10064100E4FEFDFCEDC39408748094805024C2B78D
:1006510000D2B77B03DBFEA2B7E433FC1207E470E0
:1006610006EEC313FE8007EEC313FE430680000DA2
:0406710080D2AF067E
:010675002262
:10071E00D2A1D2A07F017E001207B2C2A07F017EBD
:07072E00001207B2C2A12274
:10078C00D2A1C2A07F017E001207B2D2A07F017E4F
:04079C00000207B29E
:10073500C2A1C2A07F017E001207B2D2A17F017EB5
:07074500001207B2C2A1225D
:10074C00C2A1D2A07F017E001207B2D2A17F017E8E
:07075C00001207B2C2A12246
:1006F800E4F543D2A17F01FE1207B230A0130543EF
:10070800D3E54394647480948040F012078C7F0191
:0507180022C2A17F00D8
:01071D0022B9
:020575008F40B5
:10057700E4F541C2A1F541C3E54194087480948034
:100587005035E54054809400748094804004D2A094
:100597008002C2A0E54025E0F5407F017E001207FA
:1005A700B2D2A17F017E001207B2C2A17F017E00F5
:0705B7001207B2054180C0EC
:0105BE00221A
:0205BF008F3972
:1005C100E4F53AF53BF53AC3E53A94087480948032
:1005D1005021C2A17F017E001207B2D2A1E53B25C5
:1005E100E0F53B30A002053B7F017E001207B2051A
:1005F1003A80D4E539700512074C8003120735AFF4
:010601003BBD
:0106020022D5
:0306CB00014401E6
:10052900EF6003754401E5446401702E30B1093070
:10053900B00630B20320B3227FE87E031207B2E48B
:10054900F54420B1037F012220B0037F022220B2AB
:10055900037F032220B3127F042230B10C30B0098B
:0B05690030B20630B3037544017F0080
:010574002264
:060352008B328A3389346E
:10035800E4F535ED14F536F535C3E53594087480C4
:100368009480507BE535B40800504D90037AF82806
:10037800287302039202039602039A02039E020361
:10038800A20203AA0203B20203BAD2A4800ED2A424
:100398008012D2A48016D2A4801AC2A4D2A3D2A258
:1003A8008016C2A4D2A3C2A2800EC2A4C2A3D2A2A3
:1003B8008006C2A4C2A3C2A2C3E5359536FFE49461
:1003C80000AB32AA33A9348F82F5831201C8F580B5
:0F03D8007F647E001207B2E4F5800535020361F1
:0103E70022F3
:10076300EF4E6010007D027CC7DCFEDDFCEF1F70E6
:04077300EF1E80EC09
:01077700225F
:0F07B200EF4E600B7D02DDFEEF1F70F41E80F135
:0107C1002215
:0207EF000022E6
:10000300EC4D6011E8497017ED33EC3304600DE4F7
:10001300FCFFFEFD22E933E8330470F80201B3125A
:10002300017E58046009E4CC24815006285009025B
:1000330001BD2840030201BAC0E0EB4A7044B98015
:1000430006D0E0FB0201A9EF4E701CBD8008EBFF58
:10005300EAFEE9FD80EBE98DF0A4FEE5F00200EC99
:10006300E9CDF9EAFEEBFFEF89F0A4FCE5F0CE89D8
:10007300F0A42EFFE435F0CD89F0A42DFEE435F095
:100083008067EF4E7005BD80D780C3EF8BF0A4ACC3
:10009300F0EE8BF0A42CFCE435F0F8EF8AF0A42CFE
:1000A300E5F038FCE433CB8DF0A42CFCE5F03BF811
:1000B300EE8AF0A42CFCE5F038F8E433CF89F0A401
:1000C3002CFCE5F038CF3400CE89F0A42FFFE5F007
:1000D3003EFEE433C98DF0A42EFEE5F039CD8AF05F
:1000E300A42FFFE5F03EFEE43DFD33D0E0FB5007D7
:1000F3000BBB000F0201BDEC2CFCEF33FFEE33FE14
:06010300ED33FD02019541
:1001090075F020800E75F010800575F0087D007E71
:10011900007F003392D530D50312022BEC33401007
:10012900EF33FFEE33FEED33FDEC33FCD5F0ED227A
:0E013900E5F0247EA2D513CC92E7CDCEFF22B6
:10014700EDD2E7CD33EC3392D524814006E4FFFEB0
:10015700FDFC22FCE4CFCECDCC24E0501174FF800F
:10016700EDC3CC13CCCD13CDCE13CECF13CF0470AC
:07017700F030D5DE02022B7F
:10017E00E9D2E7C933E833F892D5EDD2E7CD33ECC7
:07018E0033FC5002B2D52240
:10019500EC30E7100FBF000C0EBE00080DBD0004CB
:1001A5000BEB6014A2D5EB13FCED92E7FD2274FF77
:1001B500FCFDFEFF22E480F8A2D574FF13FC7D80D0
:0301C500E480EFE4
:030000000203E810
:0C03E800787FE4F6D8FD75814402042FF4
:1001C800BB010CE58229F582E5833AF583E02250EC
:1001D80006E92582F8E622BBFE06E92582F8E22236
:0D01E800E58229F582E5833AF583E4932250
:1001F500C2D5EC30E709B2D5E4C39DFDE49CFCEE25
:1002050030E715B2D5E4C39FFFE49EFE120239C361
:10021500E49DFDE49CFC800312023930D507C3E45C
:060225009FFFE49EFE2293
:0E022B00C3E49FFFE49EFEE49DFDE49CFC22E4
:1003F40002028EE493A3F8E493A34003F68001F28F
:1004040008DFF48029E493A3F85407240CC8C33309
:10041400C4540F4420C8834004F456800146F6DFD8
:10042400E4800B01020408102040809006A6E47EBC
:10043400019360BCA3FF543F30E509541FFEE493CD
:10044400A360010ECF54C025E060A840B8E493A394
:10045400FAE493A3F8E493A3C8C582C8CAC583CABF
:10046400F0A3C8C582C8CAC583CADFE9DEE780BE77
:0106CE00002B
:10023900BC000BBE0029EF8DF084FFADF022E4CCA9
:10024900F875F008EF2FFFEE33FEEC33FCEE9DEC72
:10025900984005FCEE9DFE0FD5F0E9E4CEFD22EDB8
:10026900F8F5F0EE8420D21CFEADF075F008EF2F02
:10027900FFED33FD4007985006D5F0F222C398FDF3
:050289000FD5F0EA2290
:00000001FF
