:100368004A0048656C6C6F20576F726C64210030CE
:100378003132333435363738390041542B564552EB
:0903880053494F4E0D0A007800A4
:06041C00C2A58F80D2A7EB
:080422007F027EEFDEFEDFFC2D
:01042A0022AF
:0A043700C2A612041CC2A702042290
:10000300CFCDCFCECCCE12015B7C007D0A12015B3B
:04001300ED2430FFA9
:0A001700D2A612041CC2A7020422A4
:1003D600AE07EEFB7A0064017004ED148009EB644D
:0E03E600024A7009ED243F4480FF12043722C2
:1003F4007F381204377F0C1204377F061204377FCC
:0404040001020437B6
:0A044100AC031203D6AF040200174B
:06033F007BFF7D017F023F
:060345008B1A8A1B891CC3
:10034B001203D6E4FDAB1AAA1BA91C8D8275830080
:0C035B0012011CFF60061200170D80E963
:010367002273
:0A030E00EF24FFFDEE34FFFC7F0A30
:080318008E338F348C358D36D5
:100320007F017E00E4FBEBC39536E5356480F8740D
:0E0330008098500AAC33AD341201490B80E8BE
:01033E00229C
:040391008A268B2706
:100395001203D6AA28EAFF7E00D3940074809480C5
:0F03A500400D12030EAC26AD271200031A80E69E
:0103B4002226
:040287008B828A8359
:10028B001203D6C3E58364809480400D7F2B12004C
:10029B001785832285822380107F2D120017C3E4DC
:1002AB009582F523E49583F522AA21EAFF7E00D3FC
:1002BB00940074809480400D12030EAC22AD231277
:0502CB0000031A80E6AB
:0102D000220B
:04023C008A2B8B2C52
:100240001203D6AA2DEAD39400748094804037EA32
:1002500024FFFDE434FFFC7F107E00120318AC2B5A
:10026000AD2CCFCDCFCECCCE12015BEF540FFEC361
:10027000940A74809480EE5004243080022437FF66
:060280001200171A80BFF6
:010286002255
:0402D1008A308B31B3
:1002D5001203D6AA32EAFF7E00D39400748094807C
:1002E5004026EF24FFFDEE34FFFC7F02120318AC1D
:1002F50030AD31CFCDCFCECCCE12015BEF54012442
:0803050030FF1200171A80CD31
:01030D0022CD
:100408004389207598507587808F8D8F8BD2ACD299
:04041800AFD28E22AF
:030023000201B027
:1001B000C0E0C0F0C083C082C0D075D000C000C015
:0D01C00001C002C003C004C005C006C00796
:1001CD0078087C007D007BFF7A0379827E007F0DAD
:1001DD001200F678157C007D007BFF7A03798F7E07
:1001ED00007F021200F630980CC2988599157A039B
:1001FD00796812033F30991CC299E4FFFE74082FF1
:10020D00F8E6F5993099FDC2990FBF00010EEF6424
:04021D000D4E70E929
:10022100D007D006D005D004D003D002D001D00031
:0B023100D0D0D082D083D0F0D0E032DB
:1003B5007FFA1204081203F47BFF7A03796A7D0140
:1003C5007F011203457A03797712033F75992080DF
:0103D500FE29
:0300000002042BCC
:0C042B00787FE4F6D8FD7581360203B539
:10002600E709F608DFFA8046E709F208DFFA803EBC
:1000360088828C83E709F0A3DFFA8032E309F608A9
:10004600DFFA8078E309F208DFFA807088828C8311
:10005600E309F0A3DFFA806489828A83E0A3F608C5
:10006600DFFA805889828A83E0A3F208DFFA804C9F
:1000760080D280FA80C680D4806980F28033801076
:1000860080A680EA809A80A880DA80E280CA8033DF
:1000960089828A83ECFAE493A3C8C582C8CCC58357
:1000A600CCF0A3C8C582C8CCC583CCDFE9DEE78027
:1000B6000D89828A83E493A3F608DFF9ECFAA9F0A6
:1000C600EDFB2289828A83ECFAE0A3C8C582C8CCFC
:1000D600C583CCF0A3C8C582C8CCC583CCDFEADE15
:1000E600E880DB89828A83E493A3F208DFF980CC77
:1000F60088F0EF60010E4E60C388F0ED2402B40470
:100106000050B9F582EB2402B4040050AF23234516
:06011600822390007673C5
:10011C00BB010CE58229F582E5833AF583E0225098
:10012C0006E92582F8E622BBFE06E92582F8E222E2
:0D013C00E58229F582E5833AF583E49322FC
:10014900EF8DF0A4A8F0CF8CF0A428CE8DF0A42ECA
:02015900FE2284
:10015B00BC000BBE0029EF8DF084FFADF022E4CC88
:10016B00F875F008EF2FFFEE33FEEC33FCEE9DEC51
:10017B00984005FCEE9DFE0FD5F0E9E4CEFD22ED97
:10018B00F8F5F0EE8420D21CFEADF075F008EF2FE1
:10019B00FFED33FD4007985006D5F0F222C398FDD2
:0501AB000FD5F0EA226F
:00000001FF
