:10012C00E4F519F51AE4FF12019C8F19EF640170C4
:10013C0008AD1AFF1202D3802BE51964027008FF78
:10014C001202768F1A801DAF197E00EF6403700CBB
:10015C00051AE51AF4700D751AFF8008EF64044E49
:10016C007002F51AE51A75F06484F51BE51A75F042
:10017C006484AFF0EF75F00A84F51CEF75F00A8417
:10018C0085F01D7B007A00791B7D0612000380959B
:1002D3008F1E8D1F1203227FA01201E81202FCAFB2
:1002E3001E1201E81202FCAF1F1201E81202FC12F7
:0902F30003937F0A7E0002037EE2
:020276008F1ED9
:10027800E4F51F1203227FA01201E81202FCAF1E50
:100288001201E81202FC1203227FA11201E81202F5
:0D029800FCE4FF1202328F1F120393AF1F10
:0102A5002236
:10032200D2A1D2A07F017E001203A7C2A07F017ECC
:07033200001203A7C2A12283
:10039300D2A1C2A07F017E001203A7D2A07F017E5B
:0403A300000203A7AA
:10033900C2A1C2A07F017E001203A7D2A17F017EC4
:07034900001203A7C2A1226C
:10035000C2A1D2A07F017E001203A7D2A17F017E9D
:07036000001203A7C2A12255
:1002FC00E4F520D2A17F01FE1203A730A013052044
:10030C00D3E52094647480948040F01203937F01B1
:05031C0022C2A17F00D8
:0103210022B9
:0201E8008F2066
:1001EA00E4F521C2A1F521C3E52194087480948025
:1001FA005035E52054809400748094804004D2A045
:10020A008002C2A0E52025E0F5207F017E001203CE
:10021A00A7D2A17F017E001203A7C2A17F017E009F
:07022A001203A7052180C0AB
:0102310022AA
:020232008F201B
:10023400E4F521F522F521C3E52194087480948026
:100244005021C2A17F017E001203A7D2A1E522257D
:10025400E0F52230A00205227F017E001203A705EB
:100264002180D4E52070051203508003120339AFB6
:010274002267
:010275002266
:030367000123016E
:10019C00EF6003752301E5236401702E30B1093043
:1001AC00B00630B20320B3227FE87E031203A7E42B
:1001BC00F52320B1037F012220B0037F022220B25D
:1001CC00037F032220B3127F042230B10C30B0091C
:0B01DC0030B20630B3037523017F0032
:0101E70022F5
:10036A0011083F065B4F666D7D077F6F777C395EAC
:03037A0079710096
:060003008B1E8A1F8920FC
:10000900E4F521ED14F522F521C3E5219408748066
:100019009480400302009FE521B40800504D9000F0
:100029002EF828287302004602004A02004E0200F8
:100039005202005602005E02006602006ED2A480DF
:100049000ED2A48012D2A48016D2A4801AC2A4D23D
:10005900A3D2A28016C2A4D2A3C2A2800EC2A4C2F5
:10006900A3D2A28006C2A4C2A3C2A2C3E52195223B
:10007900FFE49400AB1EAA1FA9208F82F583120208
:10008900A62408F8E6F5807F647E001203A7E4F54C
:06009900800521020012A7
:01009F00223E
:10037E00EF4E6010007D027CC7DCFEDDFCEF1F70CF
:04038E00EF1E80ECF2
:010392002248
:0F03A700EF4E600B7D02DDFEEF1F70F41E80F144
:0103B6002224
:030000000200A05B
:0C00A000787FE4F6D8FD7581230200E7AC
:1002A600BB010CE58229F582E5833AF583E022500D
:1002B60006E92582F8E622BBFE06E92582F8E22257
:0D02C600E58229F582E5833AF583E4932271
:1000AC0002012CE493A3F8E493A34003F68001F23D
:1000BC0008DFF48029E493A3F85407240CC8C33355
:1000CC00C4540F4420C8834004F456800146F6DF24
:1000DC00E4800B0102040810204080900367E47E4A
:1000EC00019360BCA3FF543F30E509541FFEE49319
:1000FC00A360010ECF54C025E060A840B8E493A3E0
:10010C00FAE493A3F8E493A3C8C582C8CAC583CA0A
:10011C00F0A3C8C582C8CAC583CADFE9DEE780BEC2
:01037D00007F
:00000001FF
