:1000E300081801020408102040800810FFFFFF0FCA
:0E00F3005F4F5F4F0808FFFFFFFCB65455FC3F
:04010C007F02DFFE91
:0101100022CC
:0A010200C2B612010CD2B602010CC5
:02008F00AE07BA
:10009100E4FDEDC39408748094805015EEC41313ED
:1000A10013540124FF92B4EE25E0FE1201020D80EB
:0B00B100E1C2B512010CD2B502010C37
:1000BC00E4FCECC394087480948050F474102CF815
:1000CC00E6F58074182CF8E6FF12008FE4FF12009E
:0700DC008F12010C0C80DB08
:03000000020003F8
:0C000300787FE4F6D8FD75811F02004AEA
:10000F000200BCE493A3F8E493A34003F68001F24B
:10001F0008DFF48029E493A3F85407240CC8C333F2
:10002F00C4540F4420C8834004F456800146F6DFC1
:10003F00E4800B01020408102040809000E3E47E6E
:10004F00019360BCA3FF543F30E509541FFEE493B6
:10005F00A360010ECF54C025E060A840B8E493A37D
:10006F00FAE493A3F8E493A3C8C582C8CAC583CAA8
:10007F00F0A3C8C582C8CAC583CADFE9DEE780BE60
:0101010000FD
:00000001FF
