:0504C10041540D0A008A
:0304C6000113001F
:0300230002023C9A
:10023C00C0E0C0F0C083C082C0D075D000C000C088
:0D024C0001C002C003C004C005C006C00709
:10025900309835C298859908E508640D6014E50859
:10026900640A600EAF081204B974142513F8A608BD
:100279000513E50870127F011204A57B007A007945
:08028900147D017F0112041035
:10029100D007D006D005D004D003D002D001D000C1
:0B02A100D0D0D082D083D0F0D0E0326B
:10034100780C7C007D007BFF7A0479C17E007F05FB
:100351001200F612048212046CE4F511F512740C09
:100361002512F8E6FF1204B90512E5127002051113
:0D037100C39404E5116480948040E380FE95
:06049600C2A58F80D2A771
:08049C007F027EEFDEFEDFFCB3
:0104A4002235
:0A04A500C2A6120496C2A702049C2E
:10000300CFCDCFCECCCE12015B7C007D0A12015B3B
:04001300ED2430FFA9
:0A001700D2A6120496C2A702049CB0
:10043300AE07EEFB7A0064017004ED148009EB64EF
:0E044300024A7009ED243F4480FF1204A522F6
:100482007F381204A57F0C1204A57F061204A57FF3
:04049200010204A5BA
:0A04AF00AC03120433AF040200177F
:060410008B098A0A890B2A
:10041600120433E4FDAB09AA0AA90B8D8275830089
:0C04260012011CFF60061200170D80E997
:0104320022A7
:0A03BB00EF24FFFDEE34FFFC7F0A83
:0803C5008E328F338C348D352C
:1003CD007F017E00E4FBEBC39535E5346480F87462
:0E03DD008098500AAC32AD331201490B80E813
:0103EB0022EF
:0403EC008A258B26AD
:1003F000120433AA27EAFF7E00D39400748094800D
:0F040000400D1203BBAC25AD261200031A80E697
:01040F0022CA
:0402F7008B828A83E9
:1002FB00120433C3E58364809480400D7F2B12007E
:10030B001785832185822280107F2D120017C3E46D
:10031B009582F522E49583F521AA20EAFF7E00D38E
:10032B00940074809480400D1203BBAC21AD22125B
:05033B0000031A80E63A
:01034000229A
:0402AC008A2A8B2BE4
:1002B000120433AA2CEAD39400748094804037EA65
:1002C00024FFFDE434FFFC7F107E001203C5AC2A3E
:1002D000AD2BCFCDCFCECCCE12015BEF540FFEC3F2
:1002E000940A74809480EE5004243080022437FFF6
:0602F0001200171A80BF86
:0102F60022E5
:04037E008A2F8B3007
:10038200120433AA31EAFF7E00D394007480948071
:100392004026EF24FFFDEE34FFFC7F021203C5ACC2
:1003A2002FAD30CFCDCFCECCCE12015BEF54012496
:0803B20030FF1200171A80CD84
:0103BA002220
:10046C00438920759850758780758DFA758BFAD2F3
:06047C00ACD2AFD28E22CB
:10045100759850538EBF538EFE53890F758BFE7561
:0B0461008DFFC2ABD28ED2ACD2AF2216
:0804B9008F993099FDC29922D0
:030000000201B04A
:0C01B000787FE4F6D8FD7581350201F778
:10002600E709F608DFFA8046E709F208DFFA803EBC
:1000360088828C83E709F0A3DFFA8032E309F608A9
:10004600DFFA8078E309F208DFFA807088828C8311
:10005600E309F0A3DFFA806489828A83E0A3F608C5
:10006600DFFA805889828A83E0A3F208DFFA804C9F
:1000760080D280FA80C680D4806980F28033801076
:1000860080A680EA809A80A880DA80E280CA8033DF
:1000960089828A83ECFAE493A3C8C582C8CCC58357
:1000A600CCF0A3C8C582C8CCC583CCDFE9DEE78027
:1000B6000D89828A83E493A3F608DFF9ECFAA9F0A6
:1000C600EDFB2289828A83ECFAE0A3C8C582C8CCFC
:1000D600C583CCF0A3C8C582C8CCC583CCDFEADE15
:1000E600E880DB89828A83E493A3F208DFF980CC77
:1000F60088F0EF60010E4E60C388F0ED2402B40470
:100106000050B9F582EB2402B4040050AF23234516
:06011600822390007673C5
:10011C00BB010CE58229F582E5833AF583E0225098
:10012C0006E92582F8E622BBFE06E92582F8E222E2
:0D013C00E58229F582E5833AF583E49322FC
:10014900EF8DF0A4A8F0CF8CF0A428CE8DF0A42ECA
:02015900FE2284
:10015B00BC000BBE0029EF8DF084FFADF022E4CC88
:10016B00F875F008EF2FFFEE33FEEC33FCEE9DEC51
:10017B00984005FCEE9DFE0FD5F0E9E4CEFD22ED97
:10018B00F8F5F0EE8420D21CFEADF075F008EF2FE1
:10019B00FFED33FD4007985006D5F0F222C398FDD2
:0501AB000FD5F0EA226F
:1001BC00020341E493A3F8E493A34003F68001F215
:1001CC0008DFF48029E493A3F85407240CC8C33344
:1001DC00C4540F4420C8834004F456800146F6DF13
:1001EC00E4800B01020408102040809004C6E47ED9
:1001FC00019360BCA3FF543F30E509541FFEE49308
:10020C00A360010ECF54C025E060A840B8E493A3CE
:10021C00FAE493A3F8E493A3C8C582C8CAC583CAF9
:10022C00F0A3C8C582C8CAC583CADFE9DEE780BEB1
:0104C9000032
:00000001FF
