:0A00EA00080801030206040C0809CF
:0900C400EB54072408F8E6F5905E
:0900CD00007F027EC7DEFEDFFCAD
:0100D6002207
:04008F008E108F112F
:10009300ED6017AA10AB11D3EB9400EA9400402053
:1000A3001200C4EB1B70F01A80EDE4FAFBC3EB956E
:1000B30011EA9510500A1200C40BBB00010A80ED2F
:0100C300221A
:1000D700E4F5901200CD7D01FF7E1012008FE4F54C
:0300E7009080FE08
:03000000020003F8
:0C000300787FE4F6D8FD75811102004AF8
:10000F000200D7E493A3F8E493A34003F68001F230
:10001F0008DFF48029E493A3F85407240CC8C333F2
:10002F00C4540F4420C8834004F456800146F6DFC1
:10003F00E4800B01020408102040809000EAE47E67
:10004F00019360BCA3FF543F30E509541FFEE493B6
:10005F00A360010ECF54C025E060A840B8E493A37D
:10006F00FAE493A3F8E493A3C8C582C8CAC583CAA8
:10007F00F0A3C8C582C8CAC583CADFE9DEE780BE60
:0100F400000B
:00000001FF
