:0A00EC0008080102040810204080FB
:040101007F02DFFE9C
:0101050022D7
:0D00DE00007F047E817D77DDFEDEFCDFFA11
:0100EB0022F2
:0A00F700C2B6120101D2B6020101E7
:02008F00AE07BA
:10009100E4FDEDC39408748094805015EEC41313ED
:1000A10013540124FF92B4EE25E0FE1200F70D80F7
:0B00B100E1C2B5120101D2B50201014D
:1000BC00E4FCF580ECC394087480948050F2E4FF67
:1000CC0012008F74082CF8E6FF12008F1200DE0C61
:0200DC0080E2C0
:03000000020003F8
:0C000300787FE4F6D8FD75810F02004AFA
:10000F000200BCE493A3F8E493A34003F68001F24B
:10001F0008DFF48029E493A3F85407240CC8C333F2
:10002F00C4540F4420C8834004F456800146F6DFC1
:10003F00E4800B01020408102040809000ECE47E65
:10004F00019360BCA3FF543F30E509541FFEE493B6
:10005F00A360010ECF54C025E060A840B8E493A37D
:10006F00FAE493A3F8E493A3C8C582C8CAC583CAA8
:10007F00F0A3C8C582C8CAC583CADFE9DEE780BE60
:0100F6000009
:00000001FF
