:1000E10008100102040810204080080800000000E8
:0400F100000000000B
:0D00F600007F047E817D77DDFEDEFCDFFAF9
:0101030022D9
:04010E007F02DFFE8F
:0101120022CA
:0A010400C2B612010ED2B602010EBF
:02008F00AE07BA
:10009100E4FDEDC39408748094805015EEC41313ED
:1000A10013540124FF92B4EE25E0FE1201040D80E9
:0B00B100E1C2B512010ED2B502010E33
:1000BC00E4FCECC394087480948050F474082CF81D
:1000CC00E6F58074102CF8E6FF12008F12010E1268
:0500DC0000F60C80DDC0
:03000000020003F8
:0C000300787FE4F6D8FD75811702004AF2
:10000F000200BCE493A3F8E493A34003F68001F24B
:10001F0008DFF48029E493A3F85407240CC8C333F2
:10002F00C4540F4420C8834004F456800146F6DFC1
:10003F00E4800B01020408102040809000E1E47E70
:10004F00019360BCA3FF543F30E509541FFEE493B6
:10005F00A360010ECF54C025E060A840B8E493A37D
:10006F00FAE493A3F8E493A3C8C582C8CAC583CAA8
:10007F00F0A3C8C582C8CAC583CADFE9DEE780BE60
:0100F500000A
:00000001FF
