:1001080011083F065B4F666D7D077F6F777C395E10
:03011800797100FA
:10008F00E4F519E4F519F519C3E51994087480948A
:10009F008050F0E519B40800504D9000B0F82828B2
:1000AF00730200C80200CC0200D00200D40200D8B4
:1000BF000200E00200E80200F0D2A4800ED2A48079
:1000CF0012D2A48016D2A4801AC2A4D2A3D2A28024
:1000DF0016C2A4D2A3C2A2800EC2A4C2A3D2A2806F
:1000EF0006C2A4C2A3C2A274082519F8E6F58012AD
:0900FF00011CE4F5800519808F55
:04011C007F02DFFE81
:0101200022BC
:03000000020003F8
:0C000300787FE4F6D8FD75811902004AF0
:10000F0002008FE493A3F8E493A34003F68001F278
:10001F0008DFF48029E493A3F85407240CC8C333F2
:10002F00C4540F4420C8834004F456800146F6DFC1
:10003F00E4800B0102040810204080900108E47E48
:10004F00019360BCA3FF543F30E509541FFEE493B6
:10005F00A360010ECF54C025E060A840B8E493A37D
:10006F00FAE493A3F8E493A3C8C582C8CAC583CAA8
:10007F00F0A3C8C582C8CAC583CADFE9DEE780BE60
:01011B0000E3
:00000001FF
